:03000000020CFFF0
:0C0CFF00787FE4F6D8FD758142020D46B6
:100F5400202053657474696E67006C6576656C2037
:100F64006C6F773A003C0020006C6576656C2068F5
:100F74006967683A0074656D70657261747572654D
:100F84003A00202077617465722068656174657227
:0E0F9400007761746572206C6576656C3A00BA
:10123E00021E00640226001402220050021C00004E
:04124E000224000076
:03000300021128BF
:10112800C0E0C0D00525E52570020524D39401E56B
:1011380024648094804006752400752500D0D0D0A2
:02114800E03293
:03000B000210617F
:10106100C0E0C0D075D000C006758A67758CFCE5FC
:10107100211521AE20700215204E700B75200375CD
:0E10810021E8F51C751D01D006D0D0D0E0325C
:10122900438901758A67758CFCD28CD2A9D2AFE447
:05123900F520F5212263
:1010E200EF4E7006D2A0C2A1D2A2EF64014E7006EA
:1010F200C2A0D2A1D2A2EF64024E7006C2A0C2A1C7
:03110200C2A22264
:10086600E4F50BF50C12118C7BFF7A0F7954751297
:1008760008E4FDFF120FEF7BFF7A0F795E75120811
:100886007D01E4FF120FEF75110375120875130150
:10089600AB27AA267D017F50120E05E50C450B7B82
:1008A600FF70067A0F796980047A0F796B751208E2
:1008B6007D017F78120FEF7BFF7A0F796D75120835
:1008C6007D02E4FF120FEF7511037512087513010F
:1008D600AB1FAA1E7D027F58120E05E50C6401456A
:1008E6000B7BFF70067A0F796980047A0F796B7536
:1008F60012087D027F78120FEF7BFF7A0F797975E8
:1009060012087D03E4FF120FEF75110375120875C7
:100916001301AB23AA227D037F60120E05E50C644A
:1009260002450B7BFF70067A0F796980047A0F798E
:100936006B7512087D037F78120FEF209558E50B33
:100946007054E50C14601F146035240270480527A6
:10095600E52770020526D3941EE52694004037E469
:10096600F526F5278030051FE51F7002051ED39476
:1009760064E51E9400401F751E00751F3C80170518
:1009860023E52370020522D39464E52294004006F1
:1009960075220075235020965BE50B7057E50C1405
:1009A600601E1460362402704BE527152770021569
:1009B60026C3E5269400503C75260075271E803414
:1009C600E51F151F7002151EC3E51F943CE51E9416
:1009D600005021751E00751F648019E523152370CC
:1009E600021522C3E5239450E52294005006752291
:1009F60000752364209718050CE50C7002050BD3CF
:100A06009402E50B648094804005E4F50BF50CE553
:0B0A1600254524600302086E12118CBD
:010A210022B2
:100BC7007BFF7A0F7986751208E4FDFF120FEFE5B8
:100BD7002545246003020C6AF51CF51DFF120FA2C0
:100BE7008F0B7F01120FA28F0C7BFF7A0F79957500
:100BF70012087D01E4FF120FEFE50BFB7A00751178
:100C0700047512087513017D017F60120E057BFFC5
:100C17007A0F79797512087D02E4FF120FEFE50C60
:100C2700FB7A007511047512087513017D027F6048
:100C3700120E05E50BFD7C00C39527EC9526400AAF
:100C4700D3E50C9523E495224005E4FFFE8011D3FC
:100C5700ED951FEC951E40047F0180027F027E0008
:030C67001210E286
:010C6A002267
:10114A00120A2212118CD288D2A8C293D2921212F7
:10115A0029E52545247005120BC780F5120866801B
:01116A00F094
:10000E000000000000000000002F000000000700AC
:10001E00070000147F147F1400242A7F2A12006226
:10002E0064081323003649552250000005030000D2
:10003E0000001C224100000041221C000014083E5A
:10004E0008140008083E0808000000A06000000820
:10005E000808080800006060000000201008040274
:10006E00003E5149453E0000427F40000042615132
:10007E004946002141454B31001814127F100027CC
:10008E0045454539003C4A4949300001710905038F
:10009E0000364949493600064949291E00003636C0
:1000AE000000000056360000000814224100001423
:1000BE001414141400004122140800020151090600
:1000CE0000324959513E007C1211127C007F494981
:1000DE004936003E41414122007F4141221C007FB2
:1000EE0049494941007F09090901003E4149497AC0
:1000FE00007F0808087F0000417F4100002040413A
:10010E003F01007F08142241007F40404040007FA5
:10011E00020C027F007F0408107F003E4141413EE9
:10012E00007F09090906003E4151215E007F091931
:10013E0029460046494949310001017F0101003F2E
:10014E004040403F001F2040201F003F4038403FAE
:10015E000063140814630007087008070061514912
:10016E00454300007F41410000552A552A550000A5
:10017E0041417F0000040201020400404040404023
:10018E00000001020400002054545478007F4844BB
:10019E00443800384444442000384444487F0038F2
:1001AE005454541800087E0901020018A4A4A47C1B
:1001BE00007F080404780000447D400000408084E5
:1001CE007D00007F102844000000417F4000007C2D
:1001DE0004180478007C0804047800384444443839
:1001EE0000FC242424180018242418FC007C080485
:1001FE00040800485454542000043F444020003C5E
:10020E004040207C001C2040201C003C4030403CE4
:10021E00004428102844001CA0A0A07C0044645474
:10022E004C441414141414140000000000000000B8
:10023E000000000000000000000000F800000000B8
:10024E00000000333000000000100C06100C0600F9
:10025E00000000000000000040C07840C078400060
:10026E00043F04043F040400007088FC08300000C2
:10027E00001820FF211E0000F008F000E01800001A
:10028E0000211C031E211E0000F0088870000000D3
:10029E001E2123241927211010160E000000000025
:1002AE000000000000000000000000E01804020042
:1002BE00000000071820400000020418E0000000B3
:1002CE000040201807000000404080F080404000B1
:1002DE000202010F01020200000000F00000000007
:1002EE000101011F010101000000000000000000DB
:1002FE0080B0700000000000000000000000000050
:10030E0000010101010101010000000000000000D8
:10031E000030300000000000000000008060180473
:10032E00006018060100000000E010080810E00050
:10033E00000F102020100F00001010F80000000019
:10034E000020203F20200000007008080888700060
:10035E0000302824222130000030088888483000E0
:10036E000018202020110E000000C02010F8000000
:10037E0000070424243F240000F808888808080099
:10038E000019212020110E0000E0108888180000AE
:10039E00000F112020110E0000380808C838080080
:1003AE000000003F00000000007088080888700000
:1003BE00001C222121221C0000E010080810E00081
:1003CE000000312222110F00000000C0C00000000A
:1003DE00000000303000000000000080000000002F
:1003EE000000806000000000000080402010080027
:1003FE0000010204081020004040404040404000F0
:10040E0004040404040404000008102040800000CA
:10041E000020100804020100007048080808F000CF
:10042E000000003036010000C030C828E810E0009F
:10043E000718272423140B000000C038E00000002A
:10044E00203C23020227382008F888888870000094
:10045E00203F202020110E00C03008080808380068
:10046E00071820202010080008F808080810E000DF
:10047E00203F202020100F0008F88888E808100080
:10048E00203F20202320180008F88888E808100054
:10049E00203F200003000000C0300808083800008C
:1004AE0007182020221E020008F808000008F8088D
:1004BE00203F210101213F20000808F80808000014
:1004CE000020203F2020000000000808F808080047
:1004DE00C08080807F00000008F888C028180800BF
:1004EE00203F20012638200008F8080000000000F8
:1004FE00203F20202020300008F8F800F8F80800EF
:10050E00203F003F003F200008F830C00008F808E8
:10051E00203F200007183F00E01008080810E000F8
:10052E000F10202020100F0008F808080808F0000F
:10053E00203F210101010000E01008080810E00032
:10054E000F18242438504F0008F8888888887000C7
:10055E00203F2000030C3020007088080808380067
:10056E000038202121221C00180808F8080818005D
:10057E000000203F2000000008F808000008F808DE
:10058E00001F202020201F000878880000C838088F
:10059E00000007380E010000F80800F80008F80007
:1005AE00033C0700073C03000818688080681808A1
:1005BE0020302C03032C30200838C800C83808001F
:1005CE000000203F2000000010080808C83808006E
:1005DE002038262120201800000000FE0202020012
:1005EE000000007F40404000000C30C000000000C2
:1005FE00000000010638C00000020202FE000000EA
:10060E00004040407F00000000000402020204008F
:10061E0000000000000000000000000000000000CC
:10062E0080808080808080800002020400000000B4
:10063E0000000000000000000000808080800000AC
:10064E000019242222223F2008F80080800000009A
:10065E00003F112020110E0000000080808000005D
:10066E00000E112020201100000000808088F8006C
:10067E00000E112020103F2000008080808000009E
:10068E00001F222222221300008080F08888881802
:10069E000020203F2020000000008080808080000D
:1006AE00006B94949493600008F8008080800000A2
:1006BE00203F210000203F2000809898000000007D
:1006CE000020203F202000000000008098980000AD
:1006DE0000C08080807F000008F8000080808000CD
:1006EE00203F24022D302000000808F800000000F2
:1006FE000020203F202000008080808080808000AD
:10070E00203F20003F20003F80800080808000003E
:10071E00203F210000203F200000808080800000CC
:10072E00001F202020201F008080008080000000FD
:10073E0080FFA12020110E0000000080808080002C
:10074E00000E112020A0FF8080808000808080001D
:10075E0020203F212000010000008080808080004A
:10076E000033242424241900008080E080800000BF
:10077E000000001F2020000080800000008080000C
:10078E00001F202020103F2080808000008080806D
:10079E0000010E30080601008080008000808080FD
:1007AE000F300C030C300F00008080008080800022
:1007BE000020312E0E31200080808000008080804D
:1007CE0080818E70180601000080808080808000FD
:1007DE000021302C2221300000000000807C02021B
:1007EE0000000000003F404000000000FF0000003D
:1007FE0000000000FF0000000002027C80000000EC
:10080E000040403F00000000000601010202040407
:10081E0000000000000000000000F010101010FF9B
:10082E0010101010F000000000000000000000008A
:10083E00000000000000000000000F04040404FF8C
:10084E00040404040F00000000000000000000007B
:08085E00000000000000000092
:1011CA00EF4E60157D087C07ED1DAA0470011C4ACC
:0911DA0070F6EF1F70EA1E80E7B9
:0111E30022E9
:09128D00D290D291C291C29022CC
:07129F00D290C291D291220E
:0B1253001210C312125EAF041210C391
:05125E00D290C29022B5
:0710BC00AC0712128D7F78D2
:1010C300C290E4FEAD07530580BD8004D291800237
:0E10D300C291EF25E0FFD290C2900EBE08E65B
:0110E10022EC
:0E1263001210BC12125EE4FF12125302129F10
:0E1271001210BC12125E7F4012125302129F26
:10108F00E924B0FFE433FEE4FDFC1210AB7F02E471
:0C109F00FDFCFE1210AB7F10E4FDFCFE17
:1010AB00AB07AA06ED4C6003021271AF0312126379
:0110BB002212
:021105008F4019
:10110700E4F912108FE4F541AF407E007D017C00C9
:101117001210AB0541E541C3948040EC09B908E2E0
:0111270022A5
:1011AC00D3EF9400EE940040147D657C18ED1D7017
:0D11BC00011CED4C70F7EF1F70E61E80E384
:0111C9002203
:10121300EF1FAA0670011E4A600BE4FDEDC3947B29
:0512230050EE0D80F704
:0112280022A3
:10102F00A907ED24B0FFE433FEE4FDFC1210ABE999
:10103F00240254F0C4540F7E004410FFE4FDFC1250
:10104F0010ABE92402FF7E00EF540FFFE4FDFC021A
:02105F0010ABD4
:1011FC007F8D1210A7E4FDFC7F14FE1210ABE4FDF2
:07120C00FC7FAFFE0210ABF6
:0E127F007F8D12109EE4FDFC7FAEFE0210ABD0
:10118C00E4F912108FE4F50D7D017C00E4FFFE12F2
:0F119C0010AB050DE50DC3948040ED09B908E3D4
:0111AB002221
:10116B00E4F912108FE4F5427D017C007F017E00D3
:10117B001210AB0542E542C3948040EC09B908E27A
:01118B002241
:040B09008F178D189D
:100B0D00E4F51BF9EB24E0F51BE517D3947F4007C3
:100B1D00E4F51705180518E51A64107069AD18AFDE
:100B2D001712102FE4F975F010E51BA429F582E4D6
:100B3D0035F0F583E5822436F582E5833402F583BD
:100B4D00E493FF7E007D017C001210AB09B908D63D
:100B5D00E51804FDAF1712102FE4F975F010E51B21
:100B6D00A429F582E435F0F583E582243EF582E58E
:100B7D00833402F583E493FF7E007D017C00121027
:100B8D00AB09B908D622AD18AF1712102FE4F975BD
:100B9D00F006E51BA4240EF582E5F03400F583E59F
:100BAD008229F582E43583F583E493FF7E007D0190
:090BBD007C001210AB09B906D648
:010BC600220C
:0411E4008F17A905B3
:1011E8007F017E00AD0119ED6009AD177C00120C7E
:0311F8009880F1EB
:0111FB0022D1
:080D8B008F338D348A358B365D
:100D9300E4F53BF539E539C395375065C3E5379538
:100DA3003914FD7F0A1211E4AC35AD36CFCDCFCE69
:100DB300CCCE120CAA7C007D0A120CAA8D3AE53B1C
:100DC3007023E53714FFE539C39F5019E53A7012D4
:100DD300E538C3138539F0A42533FF85381A7B2002
:100DE3008016753B01E538C3138539F0A42533FF1D
:100DF300E53A2430FB85381AAD34120B09053980E6
:010E0300945A
:010E040022CB
:080E05008F0D8D0E8A0F8B107A
:100E0D00E4F516E512B40803751602E4F514E514BD
:100E1D00C395115058C3E511951414FD7F0A121195
:100E2D00E4AC0FAD10CFCDCFCECCCE120CAA7C0042
:100E3D007D0A120CAA8D15E5157014E512C3132544
:100E4D00168514F0A4250DFF85121A7B308015E54B
:100E5D0012C31325168514F0A4250DFFE5152430B6
:0D0E6D00FB85121AAD0E120B09051480A1B1
:010E7A002255
:0A0FEF008F0D8D0E8B0F8A108911F3
:100FF900E4F513AB0FAA10A91185138275830012AA
:101009000C6BFB602085121AAD0EAF0D120B097423
:1010190008250DF50DD394784007E4F50D050E0567
:051029000E051380CE4E
:01102E00229F
:060E7B008F3C8D3D8B3E13
:100E8100E4F53F12102FE4F9E53E75F040A4242665
:100E9100F582E43408F583E58229F582E43583F5AA
:100EA10083E493FF7E007D017C001210AB053F09B6
:100EB100B910D5E53D04FDAF3C12102FE4F9E53E34
:100EC10075F040A42446F582E43408F583E58229CF
:100ED100F582E43583F583E493FF7E007D017C0098
:090EE1001210AB053F09B910D550
:010EEA0022E5
:040EEB008F288B2A97
:100EEF00E4F52FF530E52B5407700BE52B13131397
:100EFF00541FF532800AE52B131313541F04F532D8
:100F0F008D32E532C3952B503BAD32AF2812102FE7
:100F1F00852831E531C3952A5026AB2CAA2DA92E51
:100F2F000530E530AE2F7002052F14F5828E831237
:100F3F000C6BFF7E007D017C001210AB053180D35E
:040F4F00053280BE29
:010F5300227B
:100A2200E4FDFC7FAEFE1210ABE4FDFCFF1210A150
:100A3200E4FDFC7F40FE1210ABE4FDFC7FB0FE1231
:100A420010ABE4FDFC7F81FE1210ABE4FDFC7FFFE6
:100A5200FE1210ABE4FDFC7FA1FE1210ABE4FDFC24
:100A62007FA6FE1210ABE4FDFC7FA8FE1210ABE4E1
:100A7200FDFC7F3FFE1210ABE4FDFC7FC8FE1210AE
:100A8200ABE4FDFC7FD3FE1210ABE4FDFCFFFE12D3
:100A920010ABE4FDFC7FD5FE1210ABE4FDFC7F80C1
:100AA200FE1210ABE4FDFC7FD8FE1210ABE4FDFC9D
:100AB2007F05FE1210ABE4FDFC7FD9FE1210ABE401
:100AC200FDFC7FF1FE1210ABE4FDFC7FDAFE12109A
:100AD200ABE4FDFC7F12FE1210ABE4FDFC7FDBFEFB
:100AE2001210ABE4FDFC7F30FE1210ABE4FDFC7F84
:100AF2008DFE1210ABE4FDFC7F14FE1210ABE4FD80
:070B0200FC7FAFFE0210AB07
:081296007F027E02DEFEDFFC98
:01129E00222D
:020FA200AD0799
:100FA400E4FBC292C293D294121296D29312129676
:100FB400C293D294121296D293C293ED24FF9294C8
:100FC400121296D293121296D293D294E4FDD29333
:100FD400121296C293121296A294E433FFEB25E008
:0A0FE4004FFB0DBD08E8D292AF03E9
:010FEE0022E0
:100D0B0002114AE493A3F8E493A34003F68001F2A3
:100D1B0008DFF48029E493A3F85407240CC8C333E9
:100D2B00C4540F4420C8834004F456800146F6DFB8
:100D3B00E4800B010204081020408090123EE47EF8
:100D4B00019360BCA3FF543F30E509541FFEE493AD
:100D5B00A360010ECF54C025E060A840B8E493A374
:100D6B00FAE493A3F8E493A3C8C582C8CAC583CA9F
:100D7B00F0A3C8C582C8CAC583CADFE9DEE780BE57
:01125200009B
:100C6B00BB010CE58229F582E5833AF583E022503E
:100C7B0006E92582F8E622BBFE06E92582F8E22288
:0D0C8B00E58229F582E5833AF583E49322A2
:100C9800EF8DF0A4A8F0CF8CF0A428CE8DF0A42E70
:020CA800FE222A
:100CAA00BC000BBE0029EF8DF084FFADF022E4CC2E
:100CBA00F875F008EF2FFFEE33FEEC33FCEE9DECF7
:100CCA00984005FCEE9DFE0FD5F0E9E4CEFD22ED3D
:100CDA00F8F5F0EE8420D21CFEADF075F008EF2F87
:100CEA00FFED33FD4007985006D5F0F222C398FD78
:050CFA000FD5F0EA2215
:00000001FF
